{
  "_format": "hh3-artifact-1",
  "contractName": "CryptoBank",
  "sourceName": "contracts/CryptoBank.sol",
  "abi": [
    {
      "inputs": [],
      "name": "ReentrancyGuardReentrantCall",
      "type": "error"
    },
    {
      "anonymous": false,
      "inputs": [
        {
          "indexed": true,
          "internalType": "address",
          "name": "account",
          "type": "address"
        },
        {
          "indexed": false,
          "internalType": "uint256",
          "name": "amount",
          "type": "uint256"
        }
      ],
      "name": "DepositMade",
      "type": "event"
    },
    {
      "anonymous": false,
      "inputs": [
        {
          "indexed": true,
          "internalType": "address",
          "name": "from",
          "type": "address"
        },
        {
          "indexed": true,
          "internalType": "address",
          "name": "to",
          "type": "address"
        },
        {
          "indexed": false,
          "internalType": "uint256",
          "name": "amount",
          "type": "uint256"
        }
      ],
      "name": "TransferMade",
      "type": "event"
    },
    {
      "anonymous": false,
      "inputs": [
        {
          "indexed": true,
          "internalType": "address",
          "name": "account",
          "type": "address"
        },
        {
          "indexed": false,
          "internalType": "uint256",
          "name": "amount",
          "type": "uint256"
        }
      ],
      "name": "WithdrawalMade",
      "type": "event"
    },
    {
      "inputs": [
        {
          "internalType": "address",
          "name": "",
          "type": "address"
        }
      ],
      "name": "balances",
      "outputs": [
        {
          "internalType": "uint256",
          "name": "",
          "type": "uint256"
        }
      ],
      "stateMutability": "view",
      "type": "function"
    },
    {
      "inputs": [],
      "name": "deposit",
      "outputs": [],
      "stateMutability": "payable",
      "type": "function"
    },
    {
      "inputs": [],
      "name": "getBalance",
      "outputs": [
        {
          "internalType": "uint256",
          "name": "",
          "type": "uint256"
        }
      ],
      "stateMutability": "view",
      "type": "function"
    },
    {
      "inputs": [],
      "name": "getHistory",
      "outputs": [
        {
          "components": [
            {
              "internalType": "string",
              "name": "actionType",
              "type": "string"
            },
            {
              "internalType": "uint256",
              "name": "amount",
              "type": "uint256"
            },
            {
              "internalType": "address",
              "name": "otherParty",
              "type": "address"
            },
            {
              "internalType": "uint256",
              "name": "timestamp",
              "type": "uint256"
            }
          ],
          "internalType": "struct CryptoBank.Transaction[]",
          "name": "",
          "type": "tuple[]"
        }
      ],
      "stateMutability": "view",
      "type": "function"
    },
    {
      "inputs": [
        {
          "internalType": "address",
          "name": "",
          "type": "address"
        },
        {
          "internalType": "uint256",
          "name": "",
          "type": "uint256"
        }
      ],
      "name": "history",
      "outputs": [
        {
          "internalType": "string",
          "name": "actionType",
          "type": "string"
        },
        {
          "internalType": "uint256",
          "name": "amount",
          "type": "uint256"
        },
        {
          "internalType": "address",
          "name": "otherParty",
          "type": "address"
        },
        {
          "internalType": "uint256",
          "name": "timestamp",
          "type": "uint256"
        }
      ],
      "stateMutability": "view",
      "type": "function"
    },
    {
      "inputs": [
        {
          "internalType": "address",
          "name": "_to",
          "type": "address"
        },
        {
          "internalType": "uint256",
          "name": "_amount",
          "type": "uint256"
        }
      ],
      "name": "transferUser",
      "outputs": [],
      "stateMutability": "nonpayable",
      "type": "function"
    },
    {
      "inputs": [
        {
          "internalType": "uint256",
          "name": "_amount",
          "type": "uint256"
        }
      ],
      "name": "withdraw",
      "outputs": [],
      "stateMutability": "nonpayable",
      "type": "function"
    }
  ],
  "bytecode": "0x6080604052348015600e575f5ffd5b5060015f55610bd8806100205f395ff3fe60806040526004361061006e575f3560e01c80632e1a7d4d1161004c5780632e1a7d4d146100ed5780637718f4ec1461010c578063aa15efc81461013b578063d0e30db01461015c575f5ffd5b80631054b47f1461007257806312065fe01461009357806327e235e3146100c2575b5f5ffd5b34801561007d575f5ffd5b5061009161008c36600461088a565b610164565b005b34801561009e575f5ffd5b50335f908152600160205260409020545b6040519081526020015b60405180910390f35b3480156100cd575f5ffd5b506100af6100dc3660046108b2565b60016020525f908152604090205481565b3480156100f8575f5ffd5b506100916101073660046108d2565b61036f565b348015610117575f5ffd5b5061012b61012636600461088a565b610505565b6040516100b99493929190610917565b348015610146575f5ffd5b5061014f6105dd565b6040516100b9919061094e565b610091610700565b61016c6107a6565b335f908152600160205260409020548111156101c65760405162461bcd60e51b8152602060048201526014602482015273496e73756666696369656e742062616c616e636560601b60448201526064015b60405180910390fd5b6001600160a01b03821661020e5760405162461bcd60e51b815260206004820152600f60248201526e496e76616c6964206164647265737360881b60448201526064016101bd565b336001600160a01b0383160361025e5760405162461bcd60e51b815260206004820152601560248201527414d95b19881d1c985b9cd9995c881a5b9d985b1a59605a1b60448201526064016101bd565b5f811161027d5760405162461bcd60e51b81526004016101bd906109e4565b335f908152600160205260408120805483929061029b908490610a23565b90915550506001600160a01b0382165f90815260016020526040812080548392906102c7908490610a3c565b925050819055506102f6336040518060400160405280600481526020016314d95b9d60e21b81525083856107ce565b6103228260405180604001604052806008815260200167149958d95a5d995960c21b81525083336107ce565b6040518181526001600160a01b0383169033907f422971e1d1a7c8b68372f65fe1426aef054f0c6290124a929c843c5c019521d69060200160405180910390a361036b60015f55565b5050565b6103776107a6565b335f908152600160205260409020548111156103cc5760405162461bcd60e51b8152602060048201526014602482015273496e73756666696369656e742062616c616e636560601b60448201526064016101bd565b5f81116103eb5760405162461bcd60e51b81526004016101bd906109e4565b335f9081526001602052604081208054839290610409908490610a23565b9250508190555061043c3360405180604001604052806008815260200167576974686472617760c01b815250835f6107ce565b60405181815233907fbc158bb64f05d6383aea69bbb0b20c1bbf4b7a18f63359c5649b7c39e29d38849060200160405180910390a26040515f90339083908381818185875af1925050503d805f81146104b0576040519150601f19603f3d011682016040523d82523d5f602084013e6104b5565b606091505b50509050806104f85760405162461bcd60e51b815260206004820152600f60248201526e151c985b9cd9995c8819985a5b1959608a1b60448201526064016101bd565b5061050260015f55565b50565b6002602052815f5260405f20818154811061051e575f80fd5b905f5260205f2090600402015f9150915050805f01805461053e90610a4f565b80601f016020809104026020016040519081016040528092919081815260200182805461056a90610a4f565b80156105b55780601f1061058c576101008083540402835291602001916105b5565b820191905f5260205f20905b81548152906001019060200180831161059857829003601f168201915b5050505060018301546002840154600390940154929390926001600160a01b03909116915084565b335f908152600260209081526040808320805482518185028101850190935280835260609492939192909184015b828210156106f7578382905f5260205f2090600402016040518060800160405290815f8201805461063b90610a4f565b80601f016020809104026020016040519081016040528092919081815260200182805461066790610a4f565b80156106b25780601f10610689576101008083540402835291602001916106b2565b820191905f5260205f20905b81548152906001019060200180831161069557829003601f168201915b505050918352505060018281015460208084019190915260028401546001600160a01b031660408401526003909301546060909201919091529183529201910161060b565b50505050905090565b5f341161071f5760405162461bcd60e51b81526004016101bd906109e4565b335f908152600160205260408120805434929061073d908490610a3c565b9250508190555061076f336040518060400160405280600781526020016611195c1bdcda5d60ca1b815250345f6107ce565b60405134815233907fd15c9547ea5c06670c0010ce19bc32d54682a4b3801ece7f3ab0c3f17106b4bb9060200160405180910390a2565b60025f54036107c857604051633ee5aeb560e01b815260040160405180910390fd5b60025f55565b6001600160a01b038085165f90815260026020908152604080832081516080810183528881528084018890529486169185019190915242606085015280546001810182559083529120825160049092020190819061082c9082610ae7565b506020820151600182015560408201516002820180546001600160a01b0319166001600160a01b0390921691909117905560609091015160039091015550505050565b80356001600160a01b0381168114610885575f5ffd5b919050565b5f5f6040838503121561089b575f5ffd5b6108a48361086f565b946020939093013593505050565b5f602082840312156108c2575f5ffd5b6108cb8261086f565b9392505050565b5f602082840312156108e2575f5ffd5b5035919050565b5f81518084528060208401602086015e5f602082860101526020601f19601f83011685010191505092915050565b608081525f61092960808301876108e9565b6020830195909552506001600160a01b03929092166040830152606090910152919050565b5f602082016020835280845180835260408501915060408160051b8601019250602086015f5b828110156109d857603f19878603018452815180516080875261099a60808801826108e9565b602083810151898201526040808501516001600160a01b0316908a015260609384015193909801929092525094938401939190910190600101610974565b50929695505050505050565b602080825260119082015270105b5bdd5b9d080f880c081b9959591959607a1b604082015260600190565b634e487b7160e01b5f52601160045260245ffd5b81810381811115610a3657610a36610a0f565b92915050565b80820180821115610a3657610a36610a0f565b600181811c90821680610a6357607f821691505b602082108103610a8157634e487b7160e01b5f52602260045260245ffd5b50919050565b634e487b7160e01b5f52604160045260245ffd5b601f821115610ae257805f5260205f20601f840160051c81016020851015610ac05750805b601f840160051c820191505b81811015610adf575f8155600101610acc565b50505b505050565b815167ffffffffffffffff811115610b0157610b01610a87565b610b1581610b0f8454610a4f565b84610a9b565b6020601f821160018114610b47575f8315610b305750848201515b5f19600385901b1c1916600184901b178455610adf565b5f84815260208120601f198516915b82811015610b765787850151825560209485019460019092019101610b56565b5084821015610b9357868401515f19600387901b60f8161c191681555b50505050600190811b0190555056fea2646970667358221220ee6cc1da50f3231d196817301c180ca51511945614ee7f21d2a8dfba02f33c4b64736f6c634300081c0033",
  "linkReferences": {},
  "deployedLinkReferences": {},
  "immutableReferences": {},
  "inputSourceName": "project/contracts/CryptoBank.sol",
  "buildInfoId": "solc-0_8_28-9e74f5fbe8c624a81a8706c0246cf6afdda9d21d"
}